S01000006D794156526C69622E737265630E
S11300000C9434000C943E000C943E000C943E007E
S11300100C943E000C943E000C943E000C943E0064
S11300200C943E000C943E000C943E000C943E0054
S11300300C943E000C943E000C943E000C943E0044
S11300400C943E000C943E000C943E000C943E0034
S11300500C943E000C943E000C943E000C943E0024
S11300600C943E000C943E0011241FBECFEFD8E048
S1130070DEBFCDBF0E9440000C94A2010C9400008E
S113008001E021E048E060E875E280E00E94490078
S1130090FFCF0F93CF93DF93C42FD22FCB01A0E0D8
S11300A0B0E0880F991FAA1FBB1F880F991FAA1FB2
S11300B0BB1F9C01AD01220F331F441F551F220F8C
S11300C0331F441F551F60E074E284EF90E00E94E8
S11300D06101CA01B90161507109810991090E9444
S11300E0C0000E94FB00272F33272093C500609394
S11300F0C40088E18093C100C63031F4E2ECF0E042
S113010080818260808310C0C73031F4E2ECF0E07B
S11301108081846080830FC0C83031F4E2ECF0E069
S113012080818660808307C0C93029F4E2ECF0E066
S113013080818E608083D11106C0E2ECF0E0808182
S11301408062808307C0D13029F4E2ECF0E0808142
S113015080638083023031F4E2ECF0E080818860D7
S1130160808307C0013029F4E2ECF0E08081877FCE
S1130170808380E0DF91CF910F910895E89409C0C6
S113018097FB3EF490958095709561957F4F8F4FC6
S11301909F4F9923A9F0F92F96E9BB279395F695DC
S11301A0879577956795B795F111F8CFFAF4BB0F5A
S11301B011F460FF1BC06F5F7F4F8F4F9F4F16C0BE
S11301C0882311F096E911C0772321F09EE8872F48
S11301D0762F05C0662371F096E8862F70E060E004
S11301E02AF09A95660F771F881FDAF7880F96957D
S11301F0879597F908950E944001A8F19E57B0F1A0
S1130200985160F039F1983070F5092E9927660FEE
S1130210771F881F991F0A94D1F71CC0BB27993FE9
S11302204CF4B111B1E0B62B672F782F8827985F73
S1130230B1F708C0869577956795B79508F4B160CE
S11302409395C1F7BB0F30F411F460FF03C06F5FE7
S11302507F4F8F4F3EF490958095709561957F4FB9
S11302608F4F9F4F089568940C945B010C945A012E
S113027057FD9058440F551F59F05F3F71F0479553
S1130280880F97FB991F61F09F3F79F08795089538
S1130290121613061406551FF2CF4695F1DF08C057
S11302A0161617061806991FF1CF86957105610574
S11302B008940895E894BB2766277727CB0197F91C
S11302C00895052E97FB1EF400940E94780157FDB3
S11302D007D00E94800107FC03D04EF40C947801EF
S11302E050954095309521953F4F4F4F5F4F08955E
S11302F090958095709561957F4F8F4F9F4F08958E
S1130300A1E21A2EAA1BBB1BFD010DC0AA1FBB1F15
S1130310EE1FFF1FA217B307E407F50720F0A21B87
S1130320B30BE40BF50B661F771F881F991F1A94F4
S113033069F760957095809590959B01AC01BD011E
S10B0340CF010895F894FFCFEA
S9030000FC
